{
  "contractName": "StorageStaking",
  "abi": [
    {
      "inputs": [
        {
          "internalType": "address",
          "name": "tokenAddress",
          "type": "address"
        }
      ],
      "stateMutability": "nonpayable",
      "type": "constructor"
    },
    {
      "anonymous": false,
      "inputs": [
        {
          "indexed": true,
          "internalType": "address",
          "name": "previousOwner",
          "type": "address"
        },
        {
          "indexed": true,
          "internalType": "address",
          "name": "newOwner",
          "type": "address"
        }
      ],
      "name": "OwnershipTransferred",
      "type": "event"
    },
    {
      "anonymous": false,
      "inputs": [
        {
          "indexed": true,
          "internalType": "address",
          "name": "user",
          "type": "address"
        },
        {
          "indexed": false,
          "internalType": "uint256",
          "name": "amount",
          "type": "uint256"
        },
        {
          "indexed": false,
          "internalType": "uint256",
          "name": "storageLimit",
          "type": "uint256"
        }
      ],
      "name": "Staked",
      "type": "event"
    },
    {
      "anonymous": false,
      "inputs": [
        {
          "indexed": true,
          "internalType": "address",
          "name": "user",
          "type": "address"
        },
        {
          "indexed": false,
          "internalType": "uint256",
          "name": "newLimit",
          "type": "uint256"
        }
      ],
      "name": "StorageLimitUpdated",
      "type": "event"
    },
    {
      "anonymous": false,
      "inputs": [
        {
          "indexed": true,
          "internalType": "address",
          "name": "user",
          "type": "address"
        },
        {
          "indexed": false,
          "internalType": "uint256",
          "name": "amount",
          "type": "uint256"
        }
      ],
      "name": "Unstaked",
      "type": "event"
    },
    {
      "inputs": [],
      "name": "BYTES_PER_TOKEN",
      "outputs": [
        {
          "internalType": "uint256",
          "name": "",
          "type": "uint256"
        }
      ],
      "stateMutability": "view",
      "type": "function"
    },
    {
      "inputs": [],
      "name": "MIN_STAKE_PERIOD",
      "outputs": [
        {
          "internalType": "uint256",
          "name": "",
          "type": "uint256"
        }
      ],
      "stateMutability": "view",
      "type": "function"
    },
    {
      "inputs": [],
      "name": "owner",
      "outputs": [
        {
          "internalType": "address",
          "name": "",
          "type": "address"
        }
      ],
      "stateMutability": "view",
      "type": "function"
    },
    {
      "inputs": [],
      "name": "renounceOwnership",
      "outputs": [],
      "stateMutability": "nonpayable",
      "type": "function"
    },
    {
      "inputs": [
        {
          "internalType": "address",
          "name": "",
          "type": "address"
        }
      ],
      "name": "stakes",
      "outputs": [
        {
          "internalType": "uint256",
          "name": "amount",
          "type": "uint256"
        },
        {
          "internalType": "uint256",
          "name": "timestamp",
          "type": "uint256"
        },
        {
          "internalType": "uint256",
          "name": "storageLimit",
          "type": "uint256"
        },
        {
          "internalType": "bool",
          "name": "active",
          "type": "bool"
        }
      ],
      "stateMutability": "view",
      "type": "function"
    },
    {
      "inputs": [],
      "name": "stakingToken",
      "outputs": [
        {
          "internalType": "contract IERC20",
          "name": "",
          "type": "address"
        }
      ],
      "stateMutability": "view",
      "type": "function"
    },
    {
      "inputs": [
        {
          "internalType": "address",
          "name": "newOwner",
          "type": "address"
        }
      ],
      "name": "transferOwnership",
      "outputs": [],
      "stateMutability": "nonpayable",
      "type": "function"
    },
    {
      "inputs": [
        {
          "internalType": "uint256",
          "name": "amount",
          "type": "uint256"
        }
      ],
      "name": "stake",
      "outputs": [],
      "stateMutability": "nonpayable",
      "type": "function"
    },
    {
      "inputs": [],
      "name": "unstake",
      "outputs": [],
      "stateMutability": "nonpayable",
      "type": "function"
    },
    {
      "inputs": [
        {
          "internalType": "address",
          "name": "user",
          "type": "address"
        }
      ],
      "name": "getStorageLimit",
      "outputs": [
        {
          "internalType": "uint256",
          "name": "",
          "type": "uint256"
        }
      ],
      "stateMutability": "view",
      "type": "function"
    },
    {
      "inputs": [
        {
          "internalType": "address",
          "name": "user",
          "type": "address"
        }
      ],
      "name": "isStakeActive",
      "outputs": [
        {
          "internalType": "bool",
          "name": "",
          "type": "bool"
        }
      ],
      "stateMutability": "view",
      "type": "function"
    },
    {
      "inputs": [
        {
          "internalType": "address",
          "name": "user",
          "type": "address"
        }
      ],
      "name": "getStakeInfo",
      "outputs": [
        {
          "internalType": "uint256",
          "name": "amount",
          "type": "uint256"
        },
        {
          "internalType": "uint256",
          "name": "timestamp",
          "type": "uint256"
        },
        {
          "internalType": "uint256",
          "name": "storageLimit",
          "type": "uint256"
        },
        {
          "internalType": "bool",
          "name": "active",
          "type": "bool"
        }
      ],
      "stateMutability": "view",
      "type": "function"
    }
  ],
  "bytecode": "0x608060405234801561000f575f5ffd5b5060405161148f38038061148f833981810160405281019061003191906101c2565b60015f8190555061005461004961009a60201b60201c565b6100a160201b60201c565b8060025f6101000a81548173ffffffffffffffffffffffffffffffffffffffff021916908373ffffffffffffffffffffffffffffffffffffffff160217905550506101ed565b5f33905090565b5f60015f9054906101000a900473ffffffffffffffffffffffffffffffffffffffff1690508160015f6101000a81548173ffffffffffffffffffffffffffffffffffffffff021916908373ffffffffffffffffffffffffffffffffffffffff1602179055508173ffffffffffffffffffffffffffffffffffffffff168173ffffffffffffffffffffffffffffffffffffffff167f8be0079c531659141344cd1fd0a4f28419497f9722a3daafe3b4186f6b6457e060405160405180910390a35050565b5f5ffd5b5f73ffffffffffffffffffffffffffffffffffffffff82169050919050565b5f61019182610168565b9050919050565b6101a181610187565b81146101ab575f5ffd5b50565b5f815190506101bc81610198565b92915050565b5f602082840312156101d7576101d6610164565b5b5f6101e4848285016101ae565b91505092915050565b611295806101fa5f395ff3fe608060405234801561000f575f5ffd5b50600436106100b2575f3560e01c8063a694fc3a1161006f578063a694fc3a14610157578063ad9683bf14610173578063c3453153146101a3578063d342f484146101d6578063dc7a6a46146101f4578063f2fde38b14610224576100b2565b806316934fc4146100b65780632def6620146100e9578063715018a6146100f357806372f702f3146100fd57806373e63c101461011b5780638da5cb5b14610139575b5f5ffd5b6100d060048036038101906100cb9190610c15565b610240565b6040516100e09493929190610c72565b60405180910390f35b6100f1610278565b005b6100fb6104fe565b005b610105610585565b6040516101129190610d10565b60405180910390f35b6101236105aa565b6040516101309190610d29565b60405180910390f35b6101416105b1565b60405161014e9190610d51565b60405180910390f35b610171600480360381019061016c9190610d94565b6105d9565b005b61018d60048036038101906101889190610c15565b61084f565b60405161019a9190610d29565b60405180910390f35b6101bd60048036038101906101b89190610c15565b6108f2565b6040516101cd9493929190610c72565b60405180910390f35b6101de61099b565b6040516101eb9190610d29565b60405180910390f35b61020e60048036038101906102099190610c15565b6109a2565b60405161021b9190610dbf565b60405180910390f35b61023e60048036038101906102399190610c15565b6109f7565b005b6003602052805f5260405f205f91509050805f015490806001015490806002015490806003015f9054906101000a900460ff16905084565b60025f54036102bc576040517f08c379a00000000000000000000000000000000000000000000000000000000081526004016102b390610e32565b60405180910390fd5b60025f819055505f60035f3373ffffffffffffffffffffffffffffffffffffffff1673ffffffffffffffffffffffffffffffffffffffff1681526020019081526020015f209050806003015f9054906101000a900460ff16610353576040517f08c379a000000000000000000000000000000000000000000000000000000000815260040161034a90610e9a565b60405180910390fd5b62278d0081600101546103669190610ee5565b4210156103a8576040517f08c379a000000000000000000000000000000000000000000000000000000000815260040161039f90610f62565b60405180910390fd5b5f815f015490505f826003015f6101000a81548160ff02191690831515021790555060025f9054906101000a900473ffffffffffffffffffffffffffffffffffffffff1673ffffffffffffffffffffffffffffffffffffffff1663a9059cbb33836040518363ffffffff1660e01b8152600401610426929190610f80565b6020604051808303815f875af1158015610442573d5f5f3e3d5ffd5b505050506040513d601f19601f820116820180604052508101906104669190610fd1565b6104a5576040517f08c379a000000000000000000000000000000000000000000000000000000000815260040161049c90611046565b60405180910390fd5b3373ffffffffffffffffffffffffffffffffffffffff167f0f5bb82176feb1b5e747e28471aa92156a04d9f3ab9f45f28e2d704232b93f75826040516104eb9190610d29565b60405180910390a2505060015f81905550565b610506610aed565b73ffffffffffffffffffffffffffffffffffffffff166105246105b1565b73ffffffffffffffffffffffffffffffffffffffff161461057a576040517f08c379a0000000000000000000000000000000000000000000000000000000008152600401610571906110ae565b60405180910390fd5b6105835f610af4565b565b60025f9054906101000a900473ffffffffffffffffffffffffffffffffffffffff1681565b620f424081565b5f60015f9054906101000a900473ffffffffffffffffffffffffffffffffffffffff16905090565b60025f540361061d576040517f08c379a000000000000000000000000000000000000000000000000000000000815260040161061490610e32565b60405180910390fd5b60025f819055505f8111610666576040517f08c379a000000000000000000000000000000000000000000000000000000000815260040161065d90611116565b60405180910390fd5b60025f9054906101000a900473ffffffffffffffffffffffffffffffffffffffff1673ffffffffffffffffffffffffffffffffffffffff166323b872dd3330846040518463ffffffff1660e01b81526004016106c493929190611134565b6020604051808303815f875af11580156106e0573d5f5f3e3d5ffd5b505050506040513d601f19601f820116820180604052508101906107049190610fd1565b610743576040517f08c379a000000000000000000000000000000000000000000000000000000000815260040161073a90611046565b60405180910390fd5b5f620f4240826107539190611169565b905060405180608001604052808381526020014281526020018281526020016001151581525060035f3373ffffffffffffffffffffffffffffffffffffffff1673ffffffffffffffffffffffffffffffffffffffff1681526020019081526020015f205f820151815f015560208201518160010155604082015181600201556060820151816003015f6101000a81548160ff0219169083151502179055509050503373ffffffffffffffffffffffffffffffffffffffff167f1449c6dd7851abc30abf37f57715f492010519147cc2652fbc38202c18a6ee90838360405161083c9291906111aa565b60405180910390a25060015f8190555050565b5f5f60035f8473ffffffffffffffffffffffffffffffffffffffff1673ffffffffffffffffffffffffffffffffffffffff1681526020019081526020015f206040518060800160405290815f82015481526020016001820154815260200160028201548152602001600382015f9054906101000a900460ff161515151581525050905080606001516108e4575f9150506108ed565b80604001519150505b919050565b5f5f5f5f5f60035f8773ffffffffffffffffffffffffffffffffffffffff1673ffffffffffffffffffffffffffffffffffffffff1681526020019081526020015f206040518060800160405290815f82015481526020016001820154815260200160028201548152602001600382015f9054906101000a900460ff1615151515815250509050805f01518160200151826040015183606001519450945094509450509193509193565b62278d0081565b5f60035f8373ffffffffffffffffffffffffffffffffffffffff1673ffffffffffffffffffffffffffffffffffffffff1681526020019081526020015f206003015f9054906101000a900460ff169050919050565b6109ff610aed565b73ffffffffffffffffffffffffffffffffffffffff16610a1d6105b1565b73ffffffffffffffffffffffffffffffffffffffff1614610a73576040517f08c379a0000000000000000000000000000000000000000000000000000000008152600401610a6a906110ae565b60405180910390fd5b5f73ffffffffffffffffffffffffffffffffffffffff168173ffffffffffffffffffffffffffffffffffffffff1603610ae1576040517f08c379a0000000000000000000000000000000000000000000000000000000008152600401610ad890611241565b60405180910390fd5b610aea81610af4565b50565b5f33905090565b5f60015f9054906101000a900473ffffffffffffffffffffffffffffffffffffffff1690508160015f6101000a81548173ffffffffffffffffffffffffffffffffffffffff021916908373ffffffffffffffffffffffffffffffffffffffff1602179055508173ffffffffffffffffffffffffffffffffffffffff168173ffffffffffffffffffffffffffffffffffffffff167f8be0079c531659141344cd1fd0a4f28419497f9722a3daafe3b4186f6b6457e060405160405180910390a35050565b5f5ffd5b5f73ffffffffffffffffffffffffffffffffffffffff82169050919050565b5f610be482610bbb565b9050919050565b610bf481610bda565b8114610bfe575f5ffd5b50565b5f81359050610c0f81610beb565b92915050565b5f60208284031215610c2a57610c29610bb7565b5b5f610c3784828501610c01565b91505092915050565b5f819050919050565b610c5281610c40565b82525050565b5f8115159050919050565b610c6c81610c58565b82525050565b5f608082019050610c855f830187610c49565b610c926020830186610c49565b610c9f6040830185610c49565b610cac6060830184610c63565b95945050505050565b5f819050919050565b5f610cd8610cd3610cce84610bbb565b610cb5565b610bbb565b9050919050565b5f610ce982610cbe565b9050919050565b5f610cfa82610cdf565b9050919050565b610d0a81610cf0565b82525050565b5f602082019050610d235f830184610d01565b92915050565b5f602082019050610d3c5f830184610c49565b92915050565b610d4b81610bda565b82525050565b5f602082019050610d645f830184610d42565b92915050565b610d7381610c40565b8114610d7d575f5ffd5b50565b5f81359050610d8e81610d6a565b92915050565b5f60208284031215610da957610da8610bb7565b5b5f610db684828501610d80565b91505092915050565b5f602082019050610dd25f830184610c63565b92915050565b5f82825260208201905092915050565b7f5265656e7472616e637947756172643a207265656e7472616e742063616c6c005f82015250565b5f610e1c601f83610dd8565b9150610e2782610de8565b602082019050919050565b5f6020820190508181035f830152610e4981610e10565b9050919050565b7f4e6f20616374697665207374616b6520666f756e6400000000000000000000005f82015250565b5f610e84601583610dd8565b9150610e8f82610e50565b602082019050919050565b5f6020820190508181035f830152610eb181610e78565b9050919050565b7f4e487b71000000000000000000000000000000000000000000000000000000005f52601160045260245ffd5b5f610eef82610c40565b9150610efa83610c40565b9250828201905080821115610f1257610f11610eb8565b5b92915050565b7f5374616b696e6720706572696f64206e6f7420636f6d706c65746564000000005f82015250565b5f610f4c601c83610dd8565b9150610f5782610f18565b602082019050919050565b5f6020820190508181035f830152610f7981610f40565b9050919050565b5f604082019050610f935f830185610d42565b610fa06020830184610c49565b9392505050565b610fb081610c58565b8114610fba575f5ffd5b50565b5f81519050610fcb81610fa7565b92915050565b5f60208284031215610fe657610fe5610bb7565b5b5f610ff384828501610fbd565b91505092915050565b7f5472616e73666572206661696c656400000000000000000000000000000000005f82015250565b5f611030600f83610dd8565b915061103b82610ffc565b602082019050919050565b5f6020820190508181035f83015261105d81611024565b9050919050565b7f4f776e61626c653a2063616c6c6572206973206e6f7420746865206f776e65725f82015250565b5f611098602083610dd8565b91506110a382611064565b602082019050919050565b5f6020820190508181035f8301526110c58161108c565b9050919050565b7f43616e6e6f74207374616b65203020746f6b656e7300000000000000000000005f82015250565b5f611100601583610dd8565b915061110b826110cc565b602082019050919050565b5f6020820190508181035f83015261112d816110f4565b9050919050565b5f6060820190506111475f830186610d42565b6111546020830185610d42565b6111616040830184610c49565b949350505050565b5f61117382610c40565b915061117e83610c40565b925082820261118c81610c40565b915082820484148315176111a3576111a2610eb8565b5b5092915050565b5f6040820190506111bd5f830185610c49565b6111ca6020830184610c49565b9392505050565b7f4f776e61626c653a206e6577206f776e657220697320746865207a65726f20615f8201527f6464726573730000000000000000000000000000000000000000000000000000602082015250565b5f61122b602683610dd8565b9150611236826111d1565b604082019050919050565b5f6020820190508181035f8301526112588161121f565b905091905056fea2646970667358221220aba73ce7759662b65945986a29f627ebabf5007f98542de697ca6f61f10f0fe264736f6c634300081c0033",
  "immutableReferences": {},
  "source": "// SPDX-License-Identifier: MIT\r\npragma solidity ^0.8.0;\r\n\r\nimport \"@openzeppelin/contracts/token/ERC20/IERC20.sol\";\r\nimport \"@openzeppelin/contracts/security/ReentrancyGuard.sol\";\r\nimport \"@openzeppelin/contracts/access/Ownable.sol\";\r\n\r\ncontract StorageStaking is ReentrancyGuard, Ownable {\r\n    IERC20 public stakingToken;\r\n    \r\n    struct Stake {\r\n        uint256 amount;\r\n        uint256 timestamp;\r\n        uint256 storageLimit;\r\n        bool active;\r\n    }\r\n\r\n   \r\n    \r\n    mapping(address => Stake) public stakes;\r\n    \r\n    // Storage conversion rate (1 token = X bytes)\r\n    uint256 public constant BYTES_PER_TOKEN = 1_000_000; // 1MB per token\r\n    \r\n    // Minimum staking period\r\n    uint256 public constant MIN_STAKE_PERIOD = 30 days;\r\n    \r\n    event Staked(address indexed user, uint256 amount, uint256 storageLimit);\r\n    event Unstaked(address indexed user, uint256 amount);\r\n    event StorageLimitUpdated(address indexed user, uint256 newLimit);\r\n    \r\n    constructor(address tokenAddress) {\r\n        stakingToken = IERC20(tokenAddress);\r\n    }\r\n    \r\n    \r\n    function stake(uint256 amount) external nonReentrant {\r\n        require(amount > 0, \"Cannot stake 0 tokens\");\r\n        require(stakingToken.transferFrom(msg.sender, address(this), amount), \"Transfer failed\");\r\n        \r\n        uint256 storageLimit = amount * BYTES_PER_TOKEN;\r\n        \r\n        stakes[msg.sender] = Stake({\r\n            amount: amount,\r\n            timestamp: block.timestamp,\r\n            storageLimit: storageLimit,\r\n            active: true\r\n        });\r\n        \r\n        emit Staked(msg.sender, amount, storageLimit);\r\n    }\r\n    \r\n    function unstake() external nonReentrant {\r\n        Stake storage userStake = stakes[msg.sender];\r\n        require(userStake.active, \"No active stake found\");\r\n        require(block.timestamp >= userStake.timestamp + MIN_STAKE_PERIOD, \"Staking period not completed\");\r\n        \r\n        uint256 amount = userStake.amount;\r\n        userStake.active = false;\r\n        \r\n        require(stakingToken.transfer(msg.sender, amount), \"Transfer failed\");\r\n        \r\n        emit Unstaked(msg.sender, amount);\r\n    }\r\n    \r\n    function getStorageLimit(address user) external view returns (uint256) {\r\n        Stake memory userStake = stakes[user];\r\n        if (!userStake.active) return 0;\r\n        return userStake.storageLimit;\r\n    }\r\n    \r\n    function isStakeActive(address user) external view returns (bool) {\r\n        return stakes[user].active;\r\n    }\r\n    \r\n    function getStakeInfo(address user) external view returns (\r\n        uint256 amount,\r\n        uint256 timestamp,\r\n        uint256 storageLimit,\r\n        bool active\r\n    ) {\r\n        Stake memory userStake = stakes[user];\r\n        return (\r\n            userStake.amount,\r\n            userStake.timestamp,\r\n            userStake.storageLimit,\r\n            userStake.active\r\n        );\r\n    }\r\n}",
  "sourcePath": "C:\\Users\\melisates\\development\\decentralized-storage-\\truffle_project\\contracts\\StorageStaking.sol",
  "compiler": {
    "name": "solc",
    "version": "0.8.28+commit.7893614a.Emscripten.clang"
  },
  "schemaVersion": "3.4.16",
  "updatedAt": "2025-01-31T19:36:54.254Z",
  "devdoc": {
    "kind": "dev",
    "methods": {
      "owner()": {
        "details": "Returns the address of the current owner."
      },
      "renounceOwnership()": {
        "details": "Leaves the contract without owner. It will not be possible to call `onlyOwner` functions anymore. Can only be called by the current owner. NOTE: Renouncing ownership will leave the contract without an owner, thereby removing any functionality that is only available to the owner."
      },
      "transferOwnership(address)": {
        "details": "Transfers ownership of the contract to a new account (`newOwner`). Can only be called by the current owner."
      }
    },
    "version": 1
  },
  "userdoc": {
    "kind": "user",
    "methods": {},
    "version": 1
  }
}